:020000040800F2
:100000000000022031400008994000089940000893
:10001000994000089940000899400008000000003D
:1000200000000000000000000000000099400008EF
:10003000994000080000000099400008994000081D
:10004000994000089940000899400008AD3E00081A
:10005000994000089940000899400008994000081C
:10006000994000089940000899400008994000080C
:1000700099400008994000089940000899400008FC
:1000800099400008994000089940000800000000CD
:10009000000000000000000000000000994000087F
:1000A000A11C0008D11C0008011D0008551C0008F7
:1000B000651C0008711C0008811C0008994000089C
:1000C00099400008994000089940000899400008AC
:1000D00099400008FD1E00080D1F000800000000E8
:1000E000994000089940000899400008000000006D
:1000F000000000000000000000000000994000081F
:100100000000000099400008911C00089940000878
:1001100000000000000000000000000000000000DF
:10012000994000089940000899400008994000084B
:1001300099400008000000000000000000000000DE
:1001400000000000000000000000000099400008CE
:100150009940000899400008994000081D1F0008B8
:1001600099400008994000080000000000000000CD
:10017000000000000000000000000000000000007F
:10018000000000009940000800000000000000008E
:080190009940000899400008A5
:1001980010B5054C237833B9044B13B10448AFF3B9
:1001A80000800123237010BD100000200000000013
:1001B8001041000808B5034B1BB103490348AFF3CE
:1001C800008008BD00000000140000201041000855
:1001D80081F0004102E000BF83F0004330B54FEAF0
:1001E80041044FEA430594EA050F08BF90EA020F5D
:1001F8001FBF54EA000C55EA020C7FEA645C7FEAF0
:10020800655C00F0E2804FEA5454D4EB5555B8BF12
:100218006D420CDD2C4480EA020281EA030382EA83
:10022800000083EA010180EA020281EA0303362D15
:1002380088BF30BD11F0004F4FEA01314FF4801CE8
:100248004CEA113102D0404261EB410113F0004FFA
:100258004FEA03334CEA133302D0524263EB4303B1
:1002680094EA050F00F0A780A4F10104D5F1200E4F
:100278000DDB02FA0EFC22FA05F2801841F10001AA
:1002880003FA0EF2801843FA05F359410EE0A5F17E
:1002980020050EF1200E012A03FA0EFC28BF4CF0AF
:1002A800020C43FA05F3C01851EBE37101F0004565
:1002B80007D54FF0000EDCF1000C7EEB00006EEB72
:1002C8000101B1F5801F1BD3B1F5001F0CD34908FC
:1002D8005FEA30004FEA3C0C04F101044FEA445253
:1002E80012F5800F80F09A80BCF1004F08BF5FEADA
:1002F800500C50F1000041EB045141EA050130BDBA
:100308005FEA4C0C404141EB0101013C28BFB1F5CB
:10031800801FE9D291F0000F04BF01460020B1FA16
:1003280081F308BF2033A3F10B03B3F120020CDAE9
:100338000C3208DD02F1140CC2F10C0201FA0CF0C7
:1003480021FA02F10CE002F11402D8BFC2F1200C2C
:1003580001FA02F120FA0CFCDCBF41EA0C019040E2
:10036800E41AA2BF01EB0451294330BD6FEA04042B
:100378001F3C1CDA0C340EDC04F11404C4F1200216
:1003880020FA04F001FA02F340EA030021FA04F328
:1003980045EA030130BDC4F10C04C4F1200220FA7F
:1003A80002F001FA04F340EA0300294630BD21FABD
:1003B80004F0294630BD94F0000F83F4801306BF83
:1003C80081F480110134013D4EE77FEA645C18BF77
:1003D8007FEA655C29D094EA050F08BF90EA020F0E
:1003E80005D054EA000C04BF1946104630BD91EA06
:1003F800030F1EBF0021002030BD5FEA545C05D109
:100408004000494128BF41F0004130BD14F5800447
:100418003CBF01F5801130BD01F0004545F0FE41BB
:1004280041F470014FF0000030BD7FEA645C1ABFF0
:10043800194610467FEA655C1CBF0B46024650EA27
:10044800013406BF52EA033591EA030F41F4002153
:1004580030BD00BF90F0000F04BF0021704730B5D9
:100468004FF4806404F132044FF000054FF00001AE
:1004780050E700BF90F0000F04BF0021704730B56F
:100488004FF4806404F1320410F0004548BF404244
:100498004FF000013EE700BF42004FEAE2014FEA99
:1004A80031014FEA02701FBF12F07F4393F07F4F74
:1004B80081F06051704732F07F4208BF704793F077
:1004C8007F4F04BF41F40021704730B54FF460748A
:1004D80001F0004521F000411CE700BF50EA01028D
:1004E80008BF704730B54FF000050AE050EA010236
:1004F80008BF704730B511F0004502D5404261EBA6
:1005080041014FF4806404F132045FEA915C3FF4E6
:10051800D8AE4FF003025FEADC0C18BF03325FEA83
:10052800DC0C18BF033202EBDC02C2F1200300FA34
:1005380003FC20FA02F001FA03FE40EA0E0021FA59
:1005480002F11444BDE600BF70B54FF0FF0C4CF447
:10055800E06C1CEA11541DBF1CEA135594EA0C0FF9
:1005680095EA0C0F00F0DEF82C4481EA030621EA34
:100578004C5123EA4C5350EA013518BF52EA03356F
:1005880041F4801143F4801338D0A0FB02CE4FF021
:100598000005E1FB02E506F00042E0FB03E54FF051
:1005A8000006E1FB03569CF0000F18BF4EF0010E49
:1005B800A4F1FF04B6F5007F64F5407404D25FEA45
:1005C8004E0E6D4146EB060642EAC62141EA5551F8
:1005D8004FEAC52040EA5E504FEACE2EB4F1FD0C3A
:1005E80088BFBCF5E06F1ED8BEF1004F08BF5FEAB8
:1005F800500E50F1000041EB045170BD06F000466A
:1006080046EA010140EA020081EA0301B4EB5C0416
:10061800C2BFD4EB0C0541EA045170BD41F480110E
:100628004FF0000E013C00F3AB8014F1360FDEBF33
:10063800002001F0004170BDC4F10004203C35DA0F
:100648000C341BDC04F11404C4F1200500FA05F392
:1006580020FA04F001FA05F240EA020001F0004233
:1006680021F0004110EBD37021FA04F642EB0601A9
:100678005EEA430E08BF20EAD37070BDC4F10C04D3
:10068800C4F1200500FA04F320FA05F001FA04F297
:1006980040EA020001F0004110EBD37041F1000183
:1006A8005EEA430E08BF20EAD37070BDC4F120058E
:1006B80000FA05F24EEA020E20FA04F301FA05F2F6
:1006C80043EA020321FA04F001F0004121FA04F29E
:1006D80020EA020000EBD3705EEA430E08BF20EA6E
:1006E800D37070BD94F0000F0FD101F000464000A8
:1006F80041EB010111F4801F08BF013CF7D041EA2A
:10070800060195F0000F18BF704703F0004652002D
:1007180043EB030313F4801F08BF013DF7D043EAFE
:100728000603704794EA0C0F0CEA135518BF95EAB4
:100738000C0F0CD050EA410618BF52EA4306D1D13B
:1007480081EA030101F000414FF0000070BD50EA5A
:10075800410606BF1046194652EA430619D094EAE4
:100768000C0F02D150EA013613D195EA0C0F05D1CE
:1007780052EA03361CBF104619460AD181EA030122
:1007880001F0004141F0FE4141F470014FF00000DA
:1007980070BD41F0FE4141F4780170BD70B54FF075
:1007A800FF0C4CF4E06C1CEA11541DBF1CEA1355F5
:1007B80094EA0C0F95EA0C0F00F0A7F8A4EB0504D7
:1007C80081EA030E52EA03354FEA013100F08880CE
:1007D8004FEA03334FF0805545EA131343EA126397
:1007E8004FEA022245EA111545EA10654FEA00264C
:1007F8000EF000419D4208BF964244F1FD0404F505
:10080800407402D25B084FEA3202B61A65EB030560
:100818005B084FEA32024FF480104FF4002CB6EB1D
:10082800020E75EB030E22BFB61A754640EA0C009D
:100838005B084FEA3202B6EB020E75EB030E22BFDD
:10084800B61A754640EA5C005B084FEA3202B6EB1E
:10085800020E75EB030E22BFB61A754640EA9C00DD
:100868005B084FEA3202B6EB020E75EB030E22BFAD
:10087800B61A754640EADC0055EA060E18D04FEA6B
:10088800051545EA16754FEA06164FEAC30343EA0B
:1008980052734FEAC2025FEA1C1CC0D111F4801FD8
:1008A8000BD141EA00014FF000004FF0004CB6E7D1
:1008B80011F4801F04BF01430020B4F1FD0C88BF70
:1008C800BCF5E06F3FF6AFAEB5EB030C04BFB6EB7B
:1008D800020C5FEA500C50F1000041EB045170BD6E
:1008E8000EF0004E4EEA113114EB5C04C2BFD4EB9B
:1008F8000C0541EA045170BD41F480114FF0000E1F
:10090800013C90E645EA060E8DE60CEA135594EA9A
:100918000C0F08BF95EA0C0F3FF43BAF94EA0C0F9D
:100928000AD150EA01347FF434AF95EA0C0F7FF412
:1009380025AF104619462CE795EA0C0F06D152EA66
:1009480003353FF4FDAE1046194622E750EA41064A
:1009580018BF52EA43067FF4C5AE50EA41047FF45B
:100968000DAF52EA43057FF4EBAE12E74FF0FF3CC0
:1009780006E000BF4FF0010C02E000BF4FF0010C91
:100988004DF804CD4FEA410C7FEA6C5C4FEA430C0A
:1009980018BF7FEA6C5C1BD001B050EA410C0CBF59
:1009A80052EA430C91EA030F02BF90EA020F0020BB
:1009B800704710F1000F91EA030F58BF994208BF22
:1009C80090422CBFD8176FEAE37040F001007047DF
:1009D8004FEA410C7FEA6C5C02D150EA013C07D136
:1009E8004FEA430C7FEA6C5CD6D152EA033CD3D081
:1009F8005DF8040B704700BF8446104662468C467B
:100A08001946634600E000BF01B5FFF7B7FF0028AD
:100A180048BF10F1000F01BD4DF808EDFFF7F4FFD6
:100A28000CBF012000205DF808FB00BF4DF808ED61
:100A3800FFF7EAFF34BF012000205DF808FB00BF84
:100A48004DF808EDFFF7E0FF94BF012000205DF8A6
:100A580008FB00BF4DF808EDFFF7CEFF94BF01205B
:100A680000205DF808FB00BF4DF808EDFFF7C4FF54
:100A780034BF012000205DF808FB00BF4FEA4102A7
:100A880012F5001215D211D56FF47873B3EB6252D8
:100A980012D94FEAC12343F0004343EA505311F0FF
:100AA800004F23FA02F018BF404270474FF0000091
:100AB800704750EA013005D111F0004008BF6FF0CF
:100AC800004070474FF00000704700BF7BB972B913
:100AD8000029BEBF00204FF0004106E008BF0028F3
:100AE8001CBF6FF000414FF0FF3000F0F5B9ADF1D9
:100AF800080C6DE904CE002909DB002B1ADB00F095
:100B080083F8DDF804E0DDE9022304B070474042D1
:100B180061EB4101002B1BDB00F076F8DDF804E007
:100B2800DDE9022304B0404261EB4101524263EB2C
:100B380043037047524263EB430300F065F8DDF866
:100B480004E0DDE9022304B0404261EB4101704753
:100B5800524263EB430300F057F8DDF804E0DDE9A7
:100B6800022304B0524263EB4303704753B94AB9B6
:100B7800002908BF00281CBF4FF0FF314FF0FF309D
:100B880000F0AAB9ADF1080C6DE904CE00F03CF80C
:100B9800DDF804E0DDE9022304B0704738B500222F
:100BA800002304460D46FFF741FF28B92046294691
:100BB800BDE8384000F00AB8204605F1004100F0D1
:100BC80005F8404261EB410138BD00BFD0B50C4B80
:100BD800002206460F46FFF7B7FC00F07FF90446EF
:100BE800FFF738FC074B0022FFF7AEFC02460B4626
:100BF80030463946FFF7F0FA00F070F92146D0BDCB
:100C08000000F03D0000F0412DE9F047089D044642
:100C18008E46002B4DD18A42944669D9B2FA82F2A7
:100C280052B101FA02F3C2F1200120FA01F10CFAE3
:100C380002FC41EA030E94404FEA1C48210CBEFB1B
:100C4800F8F61FFA8CF708FB16E341EA034306FBA4
:100C580007F199420AD91CEB030306F1FF3080F033
:100C68001F81994240F21C81023E63445B1AA4B280
:100C7800B3FBF8F008FB103344EA034400FB07F722
:100C8800A7420AD91CEB040400F1FF3380F00A8163
:100C9800A74240F207816444023840EA0640E41B58
:100CA80000261DB1D4400023C5E900433146BDE804
:100CB800F0878B4209D9002D00F0EF800026C5E9A6
:100CC800000130463146BDE8F087B3FA83F6002EBE
:100CD8004AD18B4202D3824200F2F980841A61EB36
:100CE800030301209E46002DE0D0C5E9004EDDE754
:100CF80002B9FFDEB2FA82F2002A40F09280A1EB3C
:100D08000C014FEA1C471FFA8CFE0126200CB1FB90
:100D1800F7F307FB131140EA01410EFB03F0884289
:100D280008D91CEB010103F1FF3802D2884200F216
:100D3800CB804346091AA4B2B1FBF7F007FB1011A8
:100D480044EA01440EFB00FEA64508D91CEB040446
:100D580000F1FF3102D2A64500F2BB800846A4EBA1
:100D68000E0440EA03409CE7C6F12007B34022FA8C
:100D780007FC4CEA030C20FA07F401FA06F31C43BB
:100D8800F9404FEA1C4900FA06F3B1FBF9F8200CC8
:100D98001FFA8CFE09FB181140EA014108FB0EF00E
:100DA800884202FA06F20BD91CEB010108F1FF3A5E
:100DB80080F08880884240F28580A8F1020861446A
:100DC800091AA4B2B1FBF9F009FB101144EA014178
:100DD80000FB0EFE8E4508D91CEB010100F1FF3423
:100DE8006CD28E456AD90238614440EA0840A0FBBB
:100DF8000294A1EB0E01A142C846A64656D353D091
:100E08005DB1B3EB080261EB0E0101FA07F722FAB4
:100E180006F3F1401F43C5E9007100263146BDE8DD
:100E2800F087C2F12003D8400CFA02FC21FA03F340
:100E3800914001434FEA1C471FFA8CFEB3FBF7F0C1
:100E480007FB10360B0C43EA064300FB0EF69E42E6
:100E580004FA02F408D91CEB030300F1FF382FD27F
:100E68009E422DD9023863449B1B89B2B3FBF7F627
:100E780007FB163341EA034106FB0EF38B4208D900
:100E88001CEB010106F1FF3816D28B4214D9023E41
:100E98006144C91A46EA004638E72E46284605E75F
:100EA8000646E3E61846F8E64B45A9D2B9EB020830
:100EB80064EB0C0E0138A3E74646EAE7204694E7C0
:100EC8004046D1E7D0467BE7023B614432E73046F3
:100ED80009E76444023842E7704700BF4A0011D26C
:100EE80012F5001211D20DD56FF47873B3EB62527C
:100EF8000ED44FEAC12343F0004343EA505323FA88
:100F080002F070474FF00000704750EA013002D1FC
:100F18004FF0FF3070474FF00000704728B102686B
:100F2800044B9A4203D000207047002070470120EC
:100F3800704700BF55AA55AA38B12DE9F0410D46B2
:100F480014460646437B0BB9FEE7FEE783689B69B8
:100F580023B14068984710F0020F1AD006F11C0719
:100F6800384601F054F8A04219D32246294638469B
:100F780001F05AF8804648B1B3685C6834B17568C6
:100F8800384601F036F801462846A0474046BDE8F5
:100F9800F08106F11C0001F043F82046F7E76FF0F6
:100FA8000100F4E72DE9F84F04460D461746FFF710
:100FB800B5FF78B3637B03B9FEE704F11C09484623
:100FC80001F012F880463E4609E0324692B22946C0
:100FD8002046FFF7B1FF002806DB361A0544BEB1EC
:100FE8004645F2D94246F1E710F1020F01D0BDE8BB
:100FF800F88FA368D3F804A0BAF1000FEFD0D4F8A3
:1010080004B0484600F0F5FF01465846D047E6E7E9
:101018003846ECE74FF0FF30E9E700B583B08DF8CC
:10102800071001220DF10701FFF7BCFF03B05DF8BF
:1010380004FB000000B585B0684602F079FC009A10
:10104800134BA3FB0232920C124B1A604FF0FF3382
:10105800B3FBF2F31048036002FB03F14942B1FB12
:10106800F2F213440360002B10DB0C4AD2F8FC3078
:1010780043F08073C2F8FC30A2F55D42136843F078
:1010880001031360002005B05DF804FBFEE700BF14
:1010980083DE1B43300000202C00002000ED00E020
:1010A80010B4124AD2F8FC3043F08073C2F8FC3016
:1010B8000F4B5A68002303E0001B02FB14330A4657
:1010C8000A4CD4F8FC1041F08071C4F8FC100849AF
:1010D80049688A1A1344074A1268B3FBF2F4A0421B
:1010E800EAD800205DF8044B704700BF00ED00E02F
:1010F800001000E03000002010B504E04FF47A70D2
:10110800FFF7CEFF2046441E0028F7D110BD00008F
:10111800014B01221A70704734000020024678B152
:1011280000B54B4203F0030C836803EB010E4068E3
:10113800864506D818466144194491605DF804FB59
:1011480070470020FAE7000010B501460448FFF791
:10115800E5FF044608B1204610BDFFF7D9FFFAE7BE
:101168000000002028B10268044B9A4203D00020F6
:101178007047002070470120704700BF399AFD84EE
:101188000A290AD838B505460C46FFF7EBFF38B1EF
:10119800083405EB4404608838BD6FF001007047DF
:1011A8006FF00200F8E7002305E003F1080200EB06
:1011B800420251800133092BF7DD70474FF6FF7368
:1011C800038200234360704708B590F8452090F8E3
:1011D800443043EA0223028A9A4210D100F12803DC
:1011E800002208E033F802CB02F1080100EB4101CC
:1011F800A1F802C00132092AF4DD0023C360FFF719
:10120800DDFF08BD2DE9F84306468846174699468E
:10121800FFF7A8FF08B1002513E0A9F80000089B14
:10122800187028E0631C736018F80520344484F8AB
:1012380026201E2B0FDC18F80520338A9B1A3382D0
:101248000135AF420DDD7468002CEBD118F805307C
:10125800202BE7D0F4E7202BF2D13046FFF7B4FF7C
:10126800EEE70022B2607368C3F12003A9F80030EA
:10127800089B1A703846BDE8F88310B50446FFF796
:1012880071FF00B9FEE7A3680133A360032B05DCF7
:10129800E3680133E360202B04DC10BD2046FFF730
:1012A8008DFFF5E74FF6FF712046FFF77CFFF4E767
:1012B80010B54820FFF748FF044628B1482200210E
:1012C80002F01AFF014B2360204610BD399AFD84B5
:1012D80070B504460E461546FFF7EAFF88B1206050
:1012E8004FF6FE71FFF75FFF2168074800F024FA08
:1012F80000B9FEE7F36822680449284698470020A9
:1013080070BD4FF0FF30FBE7831200080D12000894
:1013180028B108B50146024800F0DBF808BDFEE731
:101328003800002008B5C1B2024B186800F0A9F8CF
:1013380008BD00BF3800002008B5C1B2024B1868CC
:1013480000F0F6F808BD00BF38000020084B1B78F5
:10135800022B0BD8591C064A1170064903EB4302AD
:10136800900008449200044B8B507047002070474F
:10137800600000203C000020CCBBAA9970B5044650
:101388000E461546FFF7E2FF20B1866045602060F3
:10139800002070BD4FF0FF30FBE70000C378FBB1C1
:1013A800154BDB68DB43C3F30222C2F10401C9B267
:1013B8000F23134142788A40D2B281780B401343FD
:1013C8001B01DBB202780D490A4482F80033037826
:1013D80003F01F005B090122824041F82320704777
:1013E800037803F01F015B0901228A402033034977
:1013F80041F82320704700BF00ED00E000E100E065
:1014080091FAA1F3B3FA83FC012303FA0CF30B401E
:10141800B2B300B593FAA3F3B3FA83F3072B17D843
:10142800036A91FAA1FCBCFA8CFC4FEA8C0C4FF0D1
:101438000F0E0EFA0CFC23EA0C0391FAA1F1B1FA93
:1014480081F1890002FA01F1194301625DF804FB98
:10145800436A090A91FAA1FCBCFA8CFC4FEA8C0C8D
:101468004FF00F0E0EFA0CFC23EA0C0391FAA1F1CF
:10147800B1FA81F1890002FA01F119434162E5E705
:10148800704700B9FEE702798A420DD903684A011C
:1014980003EB4111087F20B19A584B681B049361F4
:1014A80070479B584A689A61704700B9FEE702790D
:1014B8008A420DD903684A0103EB4111087F18B12C
:1014C8009B584A689A6170479A584B681B04936105
:1014D800704731B12DE9F84381460F460160002479
:1014E8000DE0FEE7FEE7291D56F8080002F00AF9AC
:1014F8002146D9F80000FFF7D8FF0134E4B23B7960
:10150800A34212D93E684FEA441806EB44156968AD
:101518004A1E4FF6FE739A42E4D8AA69002AE2D01E
:1015280056F80800FFF76CFFDDE70020BDE8F883F8
:1015380000B9FEE702798A420DD903684A0103EB34
:1015480041119A584B68516903EA010023EA0103E3
:1015580043EA00439361704710B483B0CA234362DF
:1015680053234362836813F4806F13D02B4B1B689B
:101578002B4CA4FB0343DB0A4FF47A7404FB03F3FC
:101588000193019B5C1E0194002B3CD0C36813F0AF
:10159800040FF6D1836823F4806383601F4B1B68B4
:1015A8001F4CA4FB0343DB0A4FF47A7404FB03F3D8
:1015B8000193019B5C1E01944BB3C36813F0040FA5
:1015C800F7D04161836823F00703836083681A4377
:1015D8008260144B1A6842F480021A609A6842F4D6
:1015E80080029A60C368DBB263F49063C360836867
:1015F80043F480438360836843F480638360FF23FC
:101608004362002006E0FF234362032002E0FF2339
:101618004362032003B05DF8044B70470C000020C0
:10162800D34D6210003C014070B588B00446826812
:101638003C4B1A6000230593069307930393049386
:101648000293394B1B6F03F44073B3F5407F0CD002
:10165800354B1A6F42F480321A671A6F22F48032BF
:101668001A671A6F42F440721A6722682E4B9968FB
:1016780021F4F8110A439A601A6F42F400421A677B
:101688007C23069341F63F73079305A9274802F088
:1016980086F9274BD3F8502843F2F2239A4220D1F7
:1016A8006368224DAA6822F007021343AB60A26860
:1016B8006B691B0C1B0413436B611E4A6B4692E853
:1016C800030083E80300184601F0B0FF04F114009A
:1016D800FFF764FE6268A1682846FFF73DFFF0B196
:1016E800FEE700258DF810508DF811508DF8125036
:1016F8000E4E03AA0121304602F0B8F901218DF8F7
:1017080008108DF809108DF80B5002AA304602F027
:1017180021FA074B43F2F222C3F85028C0E708B079
:1017280070BD00BF6400002000380240002800405F
:101738000020004028410008094B1B78022B0CD8D8
:1017480003F1010C064A82F800C0064A42F8330049
:1017580002EBC3035960012070470020704700BFA7
:1017680080000020680000201B4B9B6813F4804F0A
:1017780004D0194BDB6813F4806F19D1174B5B69E0
:1017880013F4800F27D0154B4FF480025A6170472D
:1017980003EBC403586890470134E4B2104B1B783C
:1017A800A34208D90F4B53F83420002AF0D1F3E7AD
:1017B80010B50024F2E7084AD368DBB263F49063FB
:1017C800D360064B5B6913F4800F03D0034B4FF4CF
:1017D80080025A6110BD704700280040003C01405B
:1017E80080000020680000200749CA6822F4E062EF
:1017F8001204120C054B1343CB604FF0E02213691F
:1018080043F004031361704700ED00E00003FA059C
:1018180010B58CB0404B5A6C42F480425A645A6CF2
:1018280002F480420592059A1A6C42F080521A64BA
:101838001B6C03F080530493049BFFF7D5FF374BD1
:10184800DA68C2F30222C2F10703042B28BF04237B
:101858001946131D062B5CD9033A4FF0FF338B4012
:10186800DB4303F00F0393401B01DBB22B4A82F8E2
:10187800233002F057FBFFF7DDFB274B1A6B42F4CE
:10188800C00242F09F021A63196B254A0A4003926C
:10189800039A5A6B5A635A6B00220292029A196C85
:1018A8002048014319641A6C02400192019A5A6C4B
:1018B8001D490A435A645B6C0B400093009B06A8C1
:1018C80001F0C8FF01230A934FF6FF7406944EF205
:1018D800FF73069348F2FF73069306A9134801F0B5
:1018E80011FF069406A9124801F00CFF069406A9F8
:1018F800104801F007FF06A90F4801F003FF06A9E9
:101908000E4801F0FFFE06A90D4801F0FBFE0CB0E1
:1019180010BD0022A1E700BF0038024000ED00E042
:101928009F0060000FC8E210315907000000024014
:101938000004024000080240000C0240001002406F
:10194800001C02400269C3680B400A4202D01BB95E
:10195800002070470020704701207047084B1B7813
:10196800052B0BD8591C064A1170064903EB830254
:10197800900008449200044B8B5070470020704739
:10198800FC00002084000020984065872DE9F04F76
:1019980085B083460026E7E001215846FFF7D2FFCD
:1019A800012805D00023029301930024039663E0E5
:1019B8004FF6FE73CBF81030DBF82C309BB2029355
:1019C80001230193F1E7FEE7B3F5805FFBD14FF008
:1019D800100A74E04FF0080A71E04FF0020A6EE056
:1019E80057F808208AF47F4383F0FF031361B38814
:1019F800B3F5807F1BD00AD8012B12D0102B05D14C
:101A080057F808309E6BB6B201215FE008E0B3F5E5
:101A1800805F05D157F808301E6CB6B2012155E039
:101A2800FEE757F808305E6BB6B201214EE057F872
:101A38000830DE6BB6B2012148E05F684FB105EBB4
:101A48008501624B03EB810133462246096948460A
:101A5800B84705EB85035D4A02EB8303DB681E6824
:101A680046B105EB850102EB8101029B224609691B
:101A78004846B0470134E4B205EB8503534A02EB0C
:101A880083031B7AA3426CD905EB85034F4A02EB0B
:101A980083035F6804EBC4064FEA860807EB8606F3
:101AA80057F808005845E5D1B388B3F5807F91D041
:101AB8008AD8012B91D0102B85D14FF0040A5146BA
:101AC800FFF740FF01288BD00026314605EB850340
:101AD8003E4A02EB8303DB68002BCBD0019A0AB3A2
:101AE80001B30F2EA9D81F684FB105EB8501374BFD
:101AF80003EB8101029B224609694846B84705EB7A
:101B08008503324A02EB8303DB685F68002FB1D09C
:101B180005EB850102EB81013346224609694846F7
:101B2800B847A7E7019A62B11F6857B105EB85016D
:101B3800264B03EB8101029B224609694846B847B8
:101B480098E7002996D05F68002F93D005EB8503AE
:101B58001E4901EB83013346224609694846B847C6
:101B680088E7039E0136F6B2194B1B78B3422AD98F
:101B7800354606EB8609154B03EB8909D9F804307D
:101B880023B199F80830002B7FF406AF012158469D
:101B9800FFF7D8FE0128E5D14FF6FE73CBF81030D9
:101BA80005EB8503094A02EB8303DB681C68002CFC
:101BB800D8D005EB850502EB850100231A46096993
:101BC8004846A047CEE705B0BDE8F08F8400002066
:101BD800FC00002010B582B004464168006802F09D
:101BE80027F82268936823F4804323F0070393605F
:101BF800204650F8102B136843F001031360FFF7D9
:101C0800CDFB2268074B9A4202D0002002B010BDDB
:101C18002369019319238DF8043001A8FFF7BEFB4F
:101C2800F3E700BF0000014070B504460E461546B4
:101C3800FFF794FE38B10346002058601872DE6042
:101C48001D61236070BD4FF0FF30FBE708B5024807
:101C5800FFF79CFE08BD00BF0000014008B54FF02B
:101C68008040FFF793FE08BD08B50248FFF78EFED7
:101C780008BD00BF0004004008B50248FFF786FE13
:101C880008BD00BF0008004008B50248FFF77EFE07
:101C980008BD00BF000C004008B580210848FFF7C8
:101CA80051FE18B10648FFF771FE08BD5F210548CF
:101CB800FFF748FE0028F8D00248FFF767FEF4E770
:101CC800000001400040014008B501210848FFF725
:101CD80039FE18B10648FFF759FE08BD5F210548CF
:101CE800FFF730FE0028F8D00248FFF74FFEF4E770
:101CF800000001400044014008B560210848FFF792
:101D080021FE18B10648FFF741FE08BD5F210548CE
:101D1800FFF718FE0028F8D00248FFF737FEF4E76F
:101D280000000140004801400068034B984214BF7E
:101D380000200120704700BF4A83524110B5044675
:101D4800FFF7F2FF00B9FEE763681A6802F10C03B7
:101D580053E8003F43F0200302F10C0040E8003153
:101D68000029F3D110BD10B50446FFF7DDFF00B917
:101D7800FEE763681A6802F10C0353E8003F43F07A
:101D8800800302F10C0040E800310029F3D110BDB6
:101D980070B504460D461646FFF7C6FF00B9FEE7C4
:101DA800E660A56070BD70B504460D461646FFF79F
:101DB800BBFF00B9FEE76661256170BD30B585B02F
:101DC8000446FFF7B1FF00B9FEE763681A681368B5
:101DD8009BB2ADF80E305368DBB28DF80D3000239E
:101DE8008DF80C30BDF80E3013F0200F0DD09DF893
:101DF8000D308DF80A30A5683DB103AB0093002380
:101E080001220DF10A01E068A84700238DF80B3084
:101E1800BDF80E3013F0800F10D02569FDB10DF11B
:101E28000B030093002301220DF10A016069A84702
:101E380030B163681B689DF80A205A6005B030BD50
:101E480063681A6802F10C0353E8003F23F080032B
:101E580002F10C0040E800310029F3D1EEE7636895
:101E68001A6802F10C0353E8003F23F0800302F1E3
:101E78000C0040E800310029F3D1DFE770B588B0E5
:101E880005460C46FFF750FF00B9FEE76E6801AD46
:101E980006F1040CBCE80F000FC59CE8070085E8B4
:101EA8000700019401A9306801F00EFF08B070BD69
:101EB8000D4B1B78042B15D8591C0B4A11700B4974
:101EC80003EB43024FEAC20C01EB0C00002241F87D
:101ED8000C2042608260C26002614261044B41F89A
:101EE8000C30704700207047840100200C0100204E
:101EF8004A83524108B5024B1868FFF75FFF08BDD7
:101F08000001002008B5024B1868FFF757FF08BD0D
:101F18000401002008B5024B1868FFF74FFF08BD01
:101F28000801002070B506460D46FFF7C1FF0028DE
:101F38004FD00446456005F12401286A01F0E2FB10
:101F4800636803F14001D86B01F0DCFB616851F86C
:101F5800040B01F0B9FE3460606803681E4A9342BE
:101F68002ED002F58062934230D0A2F550429342BF
:101F780029D06030FFF712FA63681A6802F10C037F
:101F880053E8003F43F0200302F10C0040E8003121
:101F98000029F3D163681A6802F10C0353E8003F83
:101FA80043F0800302F10C0040E800310029F3D12E
:101FB80063681A68D36843F40053D360002070BD87
:101FC800064B1C60D5E7064B1C60D2E7054B1C602E
:101FD800CFE74FF0FF30F2E700100140000100208A
:101FE8000401002008010020008908B1013880B2EE
:101FF8007047828892B2C3889BB20189981A80B2CE
:102008009A4203D9881A13FA80F080B2704710B543
:102018000489FFF7EEFF201A80B2013880B210BDA4
:10202800C3889BB2838070472DE9F84F8146884664
:102038001546C4881FFA84FB0789D0F800A0FFF76B
:10204800E6FFA84200D8054635B30026FDB1A7EB48
:102058000B04A4B2A54200D22C46012C0FD118F8CB
:1020680006300AF80B302644B6B22D1BADB25C44DC
:102078001FFA84FB5F45E9D84FF0000BE6E72246DC
:1020880008EB06010AEB0B0002F028F8EBE7A9F8C9
:1020980006B03046BDE8F88F2E46FAE70146002024
:1020A80007E000EB8000531C0B60137803EB400043
:1020B80030380A681378303BDBB2092BF1D9704706
:1020C8002DE9F04F85B0044616461F46DB0F037412
:1020D80013B107F100431F4630463946FEF75EFD4F
:1020E8008146206003916160FEF700FA02460B46C4
:1020F80030463946FEF770F83D4B0E9A03EBC203A3
:10210800D3E900AB52465B46FEF71EFA02460B4681
:10211800CDE90023FEF742FD05468846A060E16050
:10212800FEF7E4F902460B46DDE90001FEF754F834
:1021380002460B46CDE9002300222E4BFEF794FC05
:10214800002841D0681C48F10001A060E160FEF75A
:10215800CDF902460B4650465946FEF771FC50B180
:1021680000220023C4E9022319F10100039B43F173
:102178000001206061600E9B13BB2568D4F80480C1
:1021880028464146FEF7B2F902460B463046394624
:10219800FEF722F806460F460022164BFEF746FCCD
:1021A80030B10022134B30463946FEF75DFC38B19A
:1021B80015F0010F04D0013548F100032560636074
:1021C800204605B0BDE8F08F00220A4BDDE900018A
:1021D800FEF722FC0028CED055EA080302D015F0FD
:1021E800010FC8D0013548F10001A560E160C2E7E0
:1021F800884100080000E03F82B008B50DF1080CE6
:102208008CE80C009DF810304BB102460B46DDE916
:102218000201FEF799F9BDE8084002B07047DDE910
:102228000223FEF7BBFAF6E782B008B50DF1080CF9
:102238008CE80C009DF810303BB1DDE90223FEF775
:10224800ADFABDE8084002B0704702460B46DDE92A
:102258000201FEF779F9F4E782B0D0B5044604A983
:1022680081E80C00DDE908679DF8183073B1012397
:10227800037232463B46DDE90401FEF765F9C4E91D
:1022880000012046BDE8D04002B07047DDE90401F6
:10229800C1F30A52A2F2FF32C7F30A53A3F2FF3383
:1022A800002AB8BF5242002BB8BF5B429A4208DDF1
:1022B8000023237232463B46FEF770FAC4E9000158
:1022C800DFE70123237202460B4630463946FEF704
:1022D80065FAC4E90001D4E72DE9F04F2DED028B32
:1022E80091B083460D461446DDE91C678DF8381019
:1022F80020AB93E803008DE803001EAB0CCB3046FF
:102308003946FFF779FF229BE31AB3F5997F00F36B
:102318008680FEF743FC049005910A900B91FEF726
:10232800E5F8804689460DF1800A9AE803008DE8B1
:1023380003001EAD95E80C0040464946FFF774FFC0
:1023480002460B4630463946FDF746FF06460F461D
:10235800384A02EBC40494ED008B06AC8DED028B79
:102368009AE803008DE8030095E80C002046FFF783
:1023780073FF08AB93E803008DE8030094E80C00B2
:1023880030463946FFF738FF06460F46FEF706FC8B
:10239800054688460C900D91FEF7A8F802460B46B4
:1023A80030463946FDF718FF81468A460124002643
:1023B8000022214BFEF74EFB00B934462C1948EB9E
:1023C80006060C940D9600221B4B48465146FEF714
:1023D80023FB10B124F001040C94DDE90C01FEF795
:1023E80085F853EC182BFEF735FB50B1002200237B
:1023F800CDE90C23049B581C059B43F100010A906E
:102408000B915C460AAD0FCD0FC495E8030084E834
:102418000300584611B0BDEC028BBDE8F08F15B132
:1024280001F100431946009402460B465846FFF74F
:1024380047FEEEE7884100080000E03F70B504461B
:102448000D4600220023FEF705FB68B92046294601
:10245800FEF714FB0646FEF70DF822462B46FEF75C
:10246800DBFA30B9013E04E020462946FEF706FBB8
:102478000646304670BD00002DE9F047C1F30A5A00
:10248800AAF2FF3AC1F3130343F07F5141F440111C
:1024980000222F4BFDF7A0FE04460D4622A3D3E9E8
:1024A8000023FEF751F822A3D3E90023FDF796FE97
:1024B8008046894622462B4620462946FEF744F8A0
:1024C80006460F461CA3D3E90023FEF73DF8024653
:1024D8000B4640464946FDF77FFE80468946224620
:1024E8002B4630463946FEF72FF815A3D3E90023CB
:1024F800FEF72AF802460B4640464946FDF76EFEAF
:1025080004460D465046FDF7B5FF0FA3D3E9002357
:10251800FEF71AF802460B4620462946FDF75EFEEE
:10252800BDE8F087AFF300805F436F63A787D23FB2
:10253800FCB7608B288AC63F7E043F2FDFB4B83FC4
:10254800FF0338B81BF6A53FFF799F501344D33FCC
:102558000000F83F0000000010F59A7F77D02DE9C1
:10256800F84FFDF787FF04460D4646A3D3E900233D
:10257800FDF7EAFF00223E4BFDF730FEFFF75EFF56
:10258800804635A3D3E9002320462946FDF7DCFF22
:1025980004460D464046FDF76DFF31A3D3E90023FD
:1025A800FDF7D2FF02460B4620462946FDF714FEEA
:1025B80004460D4602460B46FDF7C6FF06460F4683
:1025C80008F2FF304FF000084FEA005922462B4628
:1025D80020462946FDF702FE82468B4622462B46B8
:1025E80000204FF08041FDF7F7FD04460D4600221C
:1025F800204B30463946FEF7D1F800221E4BFDF736
:10260800EDFD02460B4630463946FEF7C7F8002274
:102618001A4BFDF7E3FD02460B4630463946FEF7F6
:10262800BDF802460B4620462946FDF7D7FD02466F
:102638000B4650465946FEF7B1F80022104BFDF7FD
:10264800CDFD42464B46FDF77FFFBDE8F88F06A15A
:10265800D1E90001704700BF1655B5BBB16B024008
:10266800EF39FAFE422EE63FD2E81978D630070055
:102678000000E03F00002C4000002440000018400B
:102688000000F03F71A379094F930A4001460020EA
:102698000A681378203B102B23D8DFE803F01822B0
:1026A800221D2222222222222213220E2222090065
:1026B80040F0010001320A60EAE740F0020001320E
:1026C8000A60E5E740F0040001320A60E0E740F004
:1026D800080001320A60DBE740F0100001320A60AE
:1026E800D6E7704708B501F0E1FB08BD2DE9F047D2
:1026F8000446884615461E46DDF82090C76819F03E
:10270800030F17D1924604E06168202090470AF130
:10271800010AB2450ED2E3685A1CE260226993426C
:10272800F5D22268002AEFD1A2682021D154EEE721
:10273800A368985475B1013D18F80500E268531C68
:10274800E36023699A42F5D22368002BF0D06168D0
:102758009847EFE719F0020F04D1BDE8F0876168E8
:1027680020209047E268D21BB242F6D2E3685A1C96
:10277800E26022699342F5D22268002AEFD1A2686A
:102788002021D154EEE7F0B583B096461F469DF858
:102798002060099D0A9B0B9C14F0020F1CD13BB1D1
:1027A80014F0010F04D017B914F00C0F00D0013B3E
:1027B800724604E04FF0300C01F802C0013214F008
:1027C800010F09D09A4207D21F2AF3D904E04FF02B
:1027D800300C01F802C00132AA4201D21F2AF6D9F0
:1027E800082E22D042F2100C14EA0C0F12D014F466
:1027F800006F04D11AB1AA421CD09A421AD0102EE6
:1028080025D0102E2CD0022E33D01F2A02D83025E6
:102818008D5401321F2A03D88FB32D258D540132D0
:102828000094FFF763FF03B0F0BD7245DAD924F0D6
:102838001004D7E7724500D9013A002ADFD0102EDC
:1028480001D0022EDBD17245D9D9013AD7E714F06D
:10285800200FD6D11F2AD4D878258D540132D4E739
:1028680014F0200FCFD01F2ACDD858258D5401320F
:10287800CBE71F2AC9D862258D540132C5E714F069
:10288800040F03D02B258D540132C9E714F0080F2B
:10289800C6D020258D540132C2E72DE9F04F8DB006
:1028A80083461E469DF85C70DDF868A052EA060370
:1028B80024D11AF4006F17D130238DF810302AF084
:1028C800100A4FF00108CDF80CA0199B0293189B31
:1028D800019300979DF85830424604A95846FFF7DF
:1028E80052FF0DB0BDE8F08F102F02D04FF0000856
:1028F800E9E72AF0100A4FF00008E4E7154600243B
:102908001AE003F13002D2B204F1010804F13003F5
:102918000DEB030404F8202C3A464B462846314672
:10292800FEF724F9BD4276F10003CCD3B8F11F0FAE
:10293800C9D8444605460E464FF000093A464B466C
:1029480028463146FEF712F9D3B2092BD9D91AF025
:10295800200F05D041221A44D2B20A3AD2B2D3E7A4
:102968006122F8E784B02DE9F04F83B00CAC84E81D
:102978000F00139E149F169D179C002E6FD0159B59
:1029880041F2100903EA0909B9F5805F21D00E9BCD
:10299800012B0F9B73F1000334DB1F2C3AD8013E47
:1029A800DDE90E890A22002340464946FEF78EF8E3
:1029B80004F1010A30322A550A22002340464946CA
:1029C800FEF784F80E900F9151EA000345D0544663
:1029D800E3E7012A0F9B73F10003D8DBDDE90EABB7
:1029E8000A22002350465946FEF770F81343CED109
:1029F800013E0A22002350465946FEF767F8CDE902
:102A08000E01EBE7B9F5805FC7D10CE030232B55F9
:102A1800013E01341F2C01D8002EF7D11F2C02D8FB
:102A28002E232B5501341F2C24D8DDE90CAB0A22A8
:102A3800002350465946FEF749F8661C30322A559D
:102A48000A22002350465946FEF740F80C900D9193
:102A580051EA00030DD03446E5E75446DAE7159B02
:102A680013F0100FDFD01F2CDDD82E232B55013487
:102A7800D9E73446159B03F00303012B14D01F2C10
:102A880005D89DF840300BB32D232B550134159BE9
:102A980000933B46224629461298FFF727FE03B0CB
:102AA800BDE8F04F04B070475FB19DF840301BB9E6
:102AB800159B13F00C0F04D0013F02E030232B5577
:102AC8000134BC42DBD21F2CF8D9D8E7159B13F090
:102AD800040F03D02B232B550134D8E7159B13F093
:102AE800080FD4D020232B550134D0E770B58EB011
:102AF8000546129E08AC00962046FFF7E1FA169BA1
:102B08000793159B0693149B0593139B04930396B5
:102B180002950EAB13E903008DE8030094E80F005B
:102B2800FFF720FF0EB070BD2DE9F04F2DED028BA1
:102B380095B0044692469B46209F229E0023089308
:102B48005FEADB79CDF8249002D00BF100439B4675
:102B58000022002350465946FDF75EFFC8BB504689
:102B68005946FFF789FCFFF769FC0546FFF7F4FCB7
:102B780041EC180B02460B4650465946FDF756FFE6
:102B880040B1013D0022874B51EC180BFDF706FEC2
:102B980041EC180B05F11103222B94BF01230023EC
:102BA800089308D885EAE572A2EBE5727E4B03EB41
:102BB800C20393ED008B8DED108B16F4805F24D04B
:102BC8004FB13B4615F1040F07DB9D4219DB00238B
:102BD80004E00025F1E70123F4E70023984693B1C8
:102BE800013F7F1B27EAE77746F40066002D0FDBDD
:102BF80000238DF84830B8F1000F0ED1ADBB01238A
:102C08000CE00123EAE7013FECE74FF00008EDE7AD
:102C1800089B002BEDD00123EBE701233BB3B9F16F
:102C2800000F02D00BF100439B46009752465B46CB
:102C38000AA8FFF745FAB8F1000F28D016F4805F0C
:102C480034D0B5F1FF3F31DBDDE90A01FDF74EFC79
:102C580005F10109544B03EBC903D3E90023FDF740
:102C6800DBFE18B3013F4D4620E00023D6E706956A
:102C78000DF1080C14AB13E90F008CE80F00CDE937
:102C880000AB3A4609990AA8FFF726FBD3E70A9B47
:102C98000A2B0B9B73F1000308DB0135012200238B
:102CA800CDE90A2300220023CDE90C23B8F1000F57
:102CB80006D105F16303C62B4DD84FF0040901E096
:102CC8004FF0000916F0020B02D0B9F1000F45D100
:102CD800219B994544D2A3EB0903D4F80CA0249A6C
:102CE8000792239A069205960493039702940EABD3
:102CF80093E803008DE803000AAB0FCBFFF732FE21
:102D0800B8F1000F22D116F0200F2BD04520E36830
:102D18005A1CE2602269934203D2226822B3616896
:102D28009047002D23DD2A46EB170521049109F170
:102D3800FF310391002102910A210191ED0F0095C5
:102D48002046FFF7AAFDBBF1000F18D115B0BDEC66
:102D5800028BBDE8F08F4FF00509B3E70023BCE70D
:102D68000023BAE76520D2E7A268D054D9E7EB1769
:102D78006A4263EB4303D8E7A2682021D154E36891
:102D8800A3EB0A03219A9342E0D2E3685A1CE2605B
:102D980022699342F3D22268002AEDD0616820208C
:102DA8009047ECE70000244088410008000000003C
:102DB8002DE9F0438FB0054616461F46169CDDF8F0
:102DC80060809DF8649010461946FDF725FE00289E
:102DD80038D04FF0FF326FF4801330463946FDF794
:102DE80025FE002837D14FF0FF32454B3046394693
:102DF800FDF73AFE002837D1B9F1000F10D13CA3F6
:102E0800D3E9002330463946FDF72EFE00283ED18F
:102E180039A3D3E9002330463946FDF707FEB0BB96
:102E280018F4006F42D000231F2B41D8112C3FD932
:102E380003F138020DEB0201302201F8202C013C8D
:102E48000133F1E7CDF80080179B03222D4928466E
:102E5800FFF74CFC14E0CDF80080179B04222A49A8
:102E68002846FFF743FC0BE018F004030BD0274972
:102E78005BB10422CDF80080179B2846FFF736FC8B
:102E88000FB0BDE8F0832249F2E70322F2E70023FE
:102E9800049306AB0393CDF80880179B0193009425
:102EA80032463B462846FFF73FFEE9E70624BAE7E5
:102EB800B9F1000F0DD0049306AB0393CDF8088049
:102EC800179B0193009432463B462846FFF72CFE99
:102ED800D6E7049306AB0393CDF80880179B0193BC
:102EE800009432463B462846FFF700FEC8E700BF7D
:102EF8000000000065CDCD410000000065CDCDC1CA
:102F0800FFFFEF7F684100086C410008604100083E
:102F18005C4100082DE9F04F89B0044607910692FC
:102F28000DE0E3685A1CE2602269934204D22268E9
:102F3800002A31D061689047079B01330793079BAC
:102F48001878002800F01E832528EAD1013307935A
:102F580007A8FFF79BFB0546079B1A78A2F13003E9
:102F6800DBB2092B1BD92A2A1ED00027079B1A7807
:102F78002E2A27D00026079A1378683B122B5ED892
:102F8800DFE803F04B5DBA5D3D5D5D5D5D5D5D5DF8
:102F9800595D5D5D5D5DBF00A268D054CCE707A8B0
:102FA800FFF77CF80746E1E7069B1A1D06921F68A3
:102FB800002F03DB079B01330793D7E740F0020597
:102FC8007F42F7E745F400655A1C07925A78A2F148
:102FD8003003DBB2092B03D92A2A06D00026CAE718
:102FE80007A8FFF75BF80646C5E7069B1A1D069279
:102FF8001E6826EAE676079B01330793BBE745F48C
:103008000071531C079352786C2A01D00D4616E0C4
:1030180045F4C0650133079311E045F08001531C66
:1030280007935278682A01D00D4608E045F0C0059C
:103038000133079303E045F4007501320792079ABC
:103048001078A0F12503532B00F28B82DFE813F0F0
:103058004102890289028902890289028902890258
:103068008902890289028902890289028902890200
:1030780089028902890289028902890289028902F0
:1030880089028902890289028902890289028902E0
:1030980047012D01470189028902890289028902B3
:1030A80089028902890289028902890289028902C0
:1030B8008902890289025E008902890289028902DD
:1030C800890289028902890289025E0068015E001C
:1030D80047012D01470189025E00890289028902A0
:1030E800890254025E00210289028902AC01890228
:1030F8005E00890289025E0045F48065013207920C
:103108009DE745F400750132079298E7642801D0DD
:10311800692801D145F48045782809D058282CD051
:103128006F282CD062282CD025F010050A2100E049
:103138001021582827D00132079215F4006F01D0CA
:1031480025F0010515F4804F68D015F4806F1DD166
:1031580015F4007F39D0069B1A1D069218680028BE
:103168002EDD0246C3170495039702960191C00FFE
:1031780000902046FFF791FBE1E61021D9E70821EE
:10318800D7E70221D5E745F02005D4E7069B0733AA
:1031980023F0070303F10802069258681A680346E9
:1031A800002809DB0495039702960191C00F00904F
:1031B8002046FFF772FBC2E6524260EB4003F1E79C
:1031C800C317424263EB4303CDE715F0400F12D01B
:1031D800069B1A1D069293F90000002819DD024685
:1031E800C3170495039702960191C00F00902046DB
:1031F800FFF753FBA3E615F0800F05D0069B1A1DB9
:103208000692B3F90000E8E7069B1A1D06921868B3
:10321800E3E7C317424263EB4303E2E725F00C0000
:1032280015F4806F13D115F4007F23D115F0400FEA
:103238002ED0069B1A1D06921A7800230490039735
:103248000296019100932046FFF727FB77E6069B3D
:10325800073323F0070303F108020692D3E900239A
:103268000490039702960191002100912046FFF7F0
:1032780014FB64E6069B1A1D06921A680023049044
:1032880003970296019100932046FFF706FB56E646
:1032980015F0800F04D0069B1A1D06921A88CCE7F9
:1032A800069B1A1D06921A68C7E7462814D0069B83
:1032B800073323F0070303F108020692D3E900233A
:1032C800002103910295019700962046FFF770FDB3
:1032D800079B0133079332E645F02005E7E76728A7
:1032E80001D0472801D145F48055452801D0472809
:1032F80001D145F02005069B073323F0070303F1AE
:1033080008020692D3E9002301210391029501974F
:1033180000962046FFF74CFD079B013307930EE606
:1033280015F0020527D00126069B1A1D069218786B
:10333800E3685A1CE2602269934203D22268E2B130
:103348006168904705BB079B01330793F7E5A268BF
:103358002021D15433465E1C9F42E5D9E3685A1CAC
:10336800E26022699342F5D22268002AEFD06168B0
:1033780020209047EEE70123EDE7A268D054E1E76B
:10338800A2682021D1542E46751CB742DBD9E368C8
:103398005A1CE26022699342F5D22268002AEFD0D3
:1033A800616820209047EEE7069B1A1D0692D3F825
:1033B8000090B9F1000F04D006BB6FF00043C84677
:1033C8000AE000953B46062278492046FFF78EF929
:1033D80046E008F10108134698F8002012B15A1E79
:1033E800002BF6D1A8EB090815F4006A02D0B04505
:1033F80028BFB04615F002051CD105E03346DEE7CC
:10340800616820209047D84608F1010B47450CD940
:10341800E3685A1CE26022699342F4D22268002AC7
:10342800EED1A2682021D154EDE7D84602E0A26887
:10343800D054013E99F8000088B1BAF1000F00D0CD
:103448006EB109F10109E3685A1CE26022699342EE
:10345800EFD22268002AEAD061689047E9E73DB9CF
:10346800079B013307936AE5616820209047A846C7
:1034780008F101054745F3D9E3685A1CE26022695F
:103488009342F4D22268002AEED1A2682021D154B6
:10349800EDE745F4005545F00105069B1A1D069217
:1034A8001A6872B1002304950A210391029610212B
:1034B800019100932046FFF7F0F9079B013307932A
:1034C8003DE500950A23052239492046FFF70EF904
:1034D800F3E7E3685A1CE2602269934204D2226847
:1034E80032B1616825209047079B0133079326E591
:1034F800A2682521D154F7E715F0400F09D0069BA3
:103508001A1D06921B68227B1A70079B01330793CA
:1035180015E515F0800F07D0069B1A1D06921B684B
:10352800B4F90C201A80F0E715F4007F06D0E268A1
:10353800069B191D06911B681A60E6E715F4806F53
:1035480008D0E268069B191D06911B681A600022C4
:103558005A60DAE7E268069B191D06911B681A6033
:10356800D3E7E3685A1CE2602269934203D22268D7
:103578002AB161689047079B01330793DFE4A2688B
:10358800D054F8E723681BB1E06809B0BDE8F08FB4
:103598002369002BF8D0A1680029F5D0E26893428E
:1035A80000D85A1E00238B54EEE700BF7441000870
:1035B8007C41000870B590B005460E46002406947C
:1035C8000794089409940A940DF1040C0DF1180E4F
:1035D800BEE80F00ACE80F00CCF800000B4B0193DD
:1035E8006FF0004305930DF12C0C0DF1040EBEE8AD
:1035F8000F00ACE80F006FF00043CCF80030324603
:1036080029460BA8FFF786FC10B070BDED26000810
:103618000FB400B583B004A951F8040B0191FFF76A
:10362800C9FF03B05DF804EB04B0704710B403465B
:103638000079002853D01A68002A5ED058790128EA
:1036480018D0022821D058B101209A79002A51D0E7
:10365800022A2FD0032A38D0012A20D0012049E09D
:1036680027494C6824EA02024A601A680C68224317
:103678000A60EAE72249086820EA02020A601A6832
:10368800486802434A600020DFE71D490868024392
:103698000A601A68486802434A600020D5E71C6837
:1036A800174AD16821EA0401D1601B6891680B436D
:1036B80093601FE01C68124A916821EA0401916036
:1036C8001B68D1680B43D36014E019680C4A9468EE
:1036D800214391601B68D1680B43D3600AE0084A14
:1036E80011681C6821EA040111601968536823EA0B
:1036F800010353605DF8044B70470020FAE700BFF0
:10370800003C01400B6893FAA3F3B3FA83FC56E03C
:103718008D68826893FAA3F4B4FA84F464004FF0D5
:10372800030E0EFA04F422EA040293FAA3F4B4FA9C
:1037380084F4640005FA04F422438260CC68426889
:1037480022EA030203FB04F42243426045E093FAB1
:10375800A3F2B2FA82F2072A15D84D69026A93FADF
:10376800A3F4B4FA84F4A4000F2606FA04F422EAB7
:10377800040293FAA3F4B4FA84F4A40005FA04F456
:103788002243026241E04C69456A1A0A92FAA2FE93
:10379800BEFA8EFE4FEA8E0E0F2606FA0EFE25EAB8
:1037A8000E0592FAA2F2B2FA82F2920004FA02F23A
:1037B8002A43426229E0002070BD0CF1010C0B681D
:1037C80033FA0CF244D0012202FA0CF21340F4D07E
:1037D80070B54A68013A012A9AD9C26893FAA3F4E3
:1037E800B4FA84F46400032505FA04F422EA040216
:1037F80093FAA3F4B4FA84F464000D6905FA04F4A6
:103808002243C2604A68022AA1D04A68046893FA2F
:10381800A3FEBEFA8EFE4FEA4E0E032505FA0EFEF3
:1038280024EA0E0E93FAA3F3B3FA83F35B0002FAC9
:1038380003F34EEA030303600CF1010C0B6833FA3F
:103848000CF2B8D0012202FA0CF21340F4D0C0E70F
:10385800002070474FF6FF73036003234360002383
:103868008360C3600361436170470000034B9B683A
:10387800C3F30313024AD35CD840704700380240B0
:1038880018420008034B9B68C3F38223024AD35CA7
:10389800D84070470038024028420008034B9B6814
:1038A800C3F34233024AD35CD84070470038024021
:1038B800284200080F4B5B6803F4800323B90E4BC2
:1038C800082803D0002070470C4BF9E7094A5068D4
:1038D80000F03F00B3FBF0F05368C3F3881303FB19
:1038E80000F05368C3F3014301335B00B0FBF3F00E
:1038F800704700BF003802400024F40000127A002C
:1039080008B5084B9B6803F00C03042B05D0082B63
:1039180005D10820FFF7CEFF02E0034800E0034886
:1039280008BD00BF0038024000127A000024F400ED
:1039380010B50446FFF7E4FF2060FFF797FF6060CB
:10394800FFF7A0FFA0606068FFF7A8FFE06010BD68
:1039580082B04FF47A730193C36813F0400F1BD100
:1039680001464FF0FF33C360C368C3F380130020E0
:10397800019A92B18BB94FF0E0231B6913F4803F91
:1039880002D0019B013B0193CB68C3F38013019ADA
:10399800002AEDD10120EBE7002002B0704738B5CE
:1039A80004460D46CA23436253234362FFF7D0FF00
:1039B800012818D02B68A26822F040021343A360A4
:1039C800AA68236923F4FF4323F07F031343236189
:1039D8006A68236923F4FE0343EA024323616FF014
:1039E8008003E3600020FF23636238BD82B0024693
:1039F8004FF47A730193C36803F0800363F0A00364
:103A0800C360C368C3F340130020019989B183B12F
:103A18004FF0E0231B6913F4803F02D0019B013B68
:103A28000193D368C3F3401301990029EDD1012014
:103A3800EBE7C8B94FF47A730193D368C3F3401323
:103A4800019989B183B94FF0E0231B6913F4803FD2
:103A580002D0019B013B0193D368C3F34013019942
:103A68000029EDD10120EBE702B0704770B504469C
:103A780015460E4651BB836813F0400F01D1002351
:103A88001360CA236362532363622046FFF760FF13
:103A9800012818D00EB32A6828796979AB7942EAE7
:103AA800004242EA01221343226822F07F1222F4E4
:103AB800FE42134323606FF08003E360A36813F0B2
:103AC800200F40D00020FF23636270BD836813F08D
:103AD800400FD6D100231360D3E72E682B791C4AF8
:103AE800A2FB0301C9080801C0B201EB8101A3EBE5
:103AF80041010843C0B26B79A2FB031C4FEADC0CFE
:103B08004FEA0C11C9B20CEB8C0CA3EB4C0C41EA3C
:103B18000C01C9B2AD79A2FB0532D2081301DBB2A0
:103B280002EB8202A5EB42021343DBB246EA0040F5
:103B380040EA01210B43226822F07F1222F4FE4260
:103B480013432360B7E72046FFF750FFBBE700BFEA
:103B5800CDCCCCCC70B5044615460E4639B9537851
:103B680013F0100F03D003F0EF030A335370CA2386
:103B78006362532363622046FFF7EAFE012817D0E9
:103B8800CEB12878AA786978EB781B0443EA4033E9
:103B980043EA012313436168234A0A4013436360DD
:103BA8006FF08003E360A36813F0200F38D0002083
:103BB800FF23636270BD95F800C0A8781B49A1FB7C
:103BC8000023DB081A01D2B203EB8303A0EB430303
:103BD8001A43D2B26B78A1FB030E4FEADE0E4FEA0E
:103BE8000E10C0B20EEB8E0EA3EB4E030343D8B2F9
:103BF800ED78A1FB0531C9080B01DBB201EB8101AE
:103C0800A5EB41010B43DBB21B0443EA4C3343EA07
:103C180000231A436168044B0B401A436260BFE7F4
:103C28002046FFF7E3FEC3E7C00000FFCDCCCCCCB5
:103C38000368244A90420ED0B0F1804F0BD0A2F511
:103C48007C42904207D002F58062904203D002F590
:103C58008062904203D123F070034A681343194AE3
:103C680090421AD0B0F1804F17D0A2F57C42904212
:103C780013D002F5806290420FD002F58062904224
:103C88000BD002F59A32904207D002F5806290423A
:103C980003D002F58062904203D123F44073CA68CE
:103CA800134303608B68C3620B888362054B984299
:103CB80005D0436943F001034361002070470B6955
:103CC8000363F6E700000140C36813F4005F01D006
:103CD8000120704730B585B004460D46C36823F40B
:103CE800164323F00C034A68C9680A4329690A4342
:103CF800A9690A431343C360AB68026922F44052BE
:103D0800134303616B69426922F4407213434361B0
:103D18006846FFF70DFE3B4B9C4208D03A4B9C424D
:103D28000CD03A4B9C420BD0012005B030BD039813
:103D3800002865D02B682BB90120F6E70298F7E731
:103D48000398F5E7AA69B2F5004F2CD000210218B4
:103D58004941121841F10001C90041EA5271D200EB
:103D680010184FEA83024FEA937341F10001FCF700
:103D7800FDFE2749A1FB00235B091A0192B26425C5
:103D880005FB13031B013233A1FB0313C3F34F13CA
:103D980003F0F0010A4492B203F00F0313449BB2FC
:103DA800A3600020C1E70025021845EB05011218A1
:103DB80041F10001C90041EA5271D200101841F1E5
:103DC8000001DA1845EB0503FCF7D0FE1049A1FB0A
:103DD80000235B091A0192B2642505FB1303DB007B
:103DE8003233A1FB0313C3F34F13590001F4F871E5
:103DF8000A4492B203F0070313449BB2A360D0E7CE
:103E0800012092E7001001400044004000140140E6
:103E18001F85EB51064BA3FB00239B09013B4FF089
:103E2800E02253610023936105231361704700BFAB
:103E3800D34D6210014B1860704700BF0C00002082
:103E4800034AD2F8883043F47003C2F888307047C8
:103E580000ED00E008B50020FDF76EFA08BD00008F
:103E680000B585B0014603A8FEF75CF800B1FEE78F
:103E7800039A094902A8FDF72BFA00B1FEE7029A56
:103E8800064901A8FDF77AFA00B1FEE7044B019A4A
:103E98009A6005B05DF804FB404100083041000815
:103EA8008C01002008B5FDF75FFC08BD08B5014688
:103EB800024B1868FDF7B1F808BD00BF8801002063
:103EC80008B50F48FDF724FA0E48FDF7ADFB0E487C
:103ED800FDF780FE0D48FDF77DFE0D48FDF77AFEE3
:103EE8000C48FFF7BDFF00220B490C48FDF79CFE6C
:103EF80000B1FEE70A4AD36843F00103D36008BD66
:103F08009C420008C44200086C4200088042000835
:103F180030420008DC420008944200089801002062
:103F28000048014010B5314A136823F0070343F0F5
:103F3800030313602D4B1B6803F00703032BF9D110
:103F48002B4A136843F4404313602A4B1A6842F41F
:103F580080221A601A6842F480321A60254B1B6866
:103F680013F4003FFAD0224A136843F480731360B5
:103F7800204B5A6820491140204A0A435A605A681F
:103F880022F440325A601A6842F080721A60194B63
:103F98001B6813F0007FFAD0164B9A6822F0F002E3
:103FA8009A609A6822F4E05242F480529A609A68C1
:103FB80022F460429A609A6822F0030242F00202F8
:103FC8009A600C4B9B6803F00C03082BF9D10C4C3E
:103FD8002046FFF71FFF2046FFF72CFF054AD2F8BF
:103FE8008C3023F08073C2F88C3010BD003C024046
:103FF80000700040003802400080BFFF04184000F5
:1040080000D8B80508B5FDF703FCFFF759FF0548C8
:10401800FFF7FEFA0020FDF785F94FF4FA70FDF777
:104028006BF8FAE740430008DFF848D01248134914
:10403800134A002302E0D458C4500433C4188C42F5
:10404800F9D3104A104C002301E013600432A24255
:10405800FBD30E4A074C5FF0A53301E0136004322E
:10406800A242FBD3FFF7ECFE00F014F8FFF7CAFFFB
:10407800704700000000022000000020100000200F
:104088006C430008100000209C01002000E0012083
:10409800FEE7000070B50D4D0D4C641BA410002602
:1040A800A64209D10B4D0C4C00F02EF8641BA4104D
:1040B8000026A64205D170BD55F8043B9847013645
:1040C800EEE755F8043B98470136F2E764430008E9
:1040D8006443000864430008684300080A449142A6
:1040E80000F1FF3300D1704710B511F8014B03F808
:1040F800014F9142F9D110BD02440346934200D1C9
:10410800704703F8011BF9E7F8B500BFF8BC08BC15
:104118009E467047F8B500BFF8BC08BC9E4670477D
:1041280000004000010001000000000089110008A3
:104138000000000000000000851E00086F1D000838
:10414800451D0008991D0008AF1D0008000000006B
:1041580000000000666E6900666E692B00000000B2
:104168006E616E00666E692D00000000296C6C752A
:104178006E280000296C696E28000000000000000D
:10418800000000000000F03F000000000000244094
:1041980000000000000059400000000000408F406F
:1041A800000000000088C34000000000006AF840DA
:1041B8000000000080842E4100000000D0126341FE
:1041C8000000000084D797410000000065CDCD4174
:1041D800000000205FA00242000000E87648374255
:1041E800000000A2941A6D42000040E59C30A242F3
:1041F8000000901EC4BCD64200003426F56B0C4368
:104208000080E03779C3414300A0D885573476430E
:10421800000000000000000001020304060708096E
:104228000000000001020304004801404442000865
:1042380000000000000000001A080001BF12000082
:10424800000000000F270000000000000000000030
:104258005F000000000000001F4E0000000000008A
:104268000000000000040040584200080000000060
:10427800000000001D080001000C00405842000822
:104288000000000000000000320800015D3E000848
:1042980000000000A44200080100000000000240E5
:1042A80020000000010000000000000000000000E5
:1042B80000000000000000000100000000000800ED
:1042C8000000000064000000000000000000000082
:1042D800030800010010014000C2010000000000B6
:1042E80000000000000000000400000000000000C2
:1042F8000000000000040240000800000200000066
:10430800000000000000000001000000070000009D
:10431800000402400004000001000000000000004A
:104328000000000000000000000000000000000085
:104338000000000025050001446562756720636F71
:104348006E736F6C6520696E697469616C697A65F2
:04435800640D0A00E6
:08435C00B4C8FF7F010000005E
:04436400BD0100088F
:0443680099010008AF
:10436C00A0010020A0210020A00100200024F400C6
:04000005080040317E
:00000001FF
